{
  "contractName": "ColdChain",
  "abi": [
    {
      "anonymous": false,
      "inputs": [
        {
          "indexed": false,
          "internalType": "address",
          "name": "entityId",
          "type": "address"
        },
        {
          "indexed": false,
          "internalType": "string",
          "name": "entityMode",
          "type": "string"
        }
      ],
      "name": "AddEntity",
      "type": "event"
    },
    {
      "anonymous": false,
      "inputs": [
        {
          "indexed": false,
          "internalType": "uint256",
          "name": "vaccineBatchId",
          "type": "uint256"
        },
        {
          "indexed": false,
          "internalType": "address",
          "name": "manufacturer",
          "type": "address"
        }
      ],
      "name": "AddVaccineBatch",
      "type": "event"
    },
    {
      "anonymous": false,
      "inputs": [
        {
          "indexed": false,
          "internalType": "address",
          "name": "issuer",
          "type": "address"
        },
        {
          "indexed": false,
          "internalType": "address",
          "name": "prover",
          "type": "address"
        }
      ],
      "name": "IssueCertificate",
      "type": "event"
    },
    {
      "inputs": [],
      "name": "MAX_CERTIFICATIONS",
      "outputs": [
        {
          "internalType": "uint256",
          "name": "",
          "type": "uint256"
        }
      ],
      "stateMutability": "view",
      "type": "function",
      "constant": true
    },
    {
      "inputs": [
        {
          "internalType": "uint256",
          "name": "",
          "type": "uint256"
        }
      ],
      "name": "certificateIds",
      "outputs": [
        {
          "internalType": "uint256",
          "name": "",
          "type": "uint256"
        }
      ],
      "stateMutability": "view",
      "type": "function",
      "constant": true
    },
    {
      "inputs": [
        {
          "internalType": "uint256",
          "name": "",
          "type": "uint256"
        }
      ],
      "name": "certificates",
      "outputs": [
        {
          "internalType": "uint256",
          "name": "id",
          "type": "uint256"
        },
        {
          "components": [
            {
              "internalType": "address",
              "name": "id",
              "type": "address"
            },
            {
              "internalType": "enum ColdChain.Mode",
              "name": "mode",
              "type": "uint8"
            },
            {
              "internalType": "uint256[]",
              "name": "certificateIds",
              "type": "uint256[]"
            }
          ],
          "internalType": "struct ColdChain.Entity",
          "name": "issuer",
          "type": "tuple"
        },
        {
          "components": [
            {
              "internalType": "address",
              "name": "id",
              "type": "address"
            },
            {
              "internalType": "enum ColdChain.Mode",
              "name": "mode",
              "type": "uint8"
            },
            {
              "internalType": "uint256[]",
              "name": "certificateIds",
              "type": "uint256[]"
            }
          ],
          "internalType": "struct ColdChain.Entity",
          "name": "prover",
          "type": "tuple"
        },
        {
          "internalType": "bytes",
          "name": "signature",
          "type": "bytes"
        }
      ],
      "stateMutability": "view",
      "type": "function",
      "constant": true
    },
    {
      "inputs": [
        {
          "internalType": "address",
          "name": "",
          "type": "address"
        }
      ],
      "name": "entities",
      "outputs": [
        {
          "internalType": "address",
          "name": "id",
          "type": "address"
        },
        {
          "internalType": "enum ColdChain.Mode",
          "name": "mode",
          "type": "uint8"
        }
      ],
      "stateMutability": "view",
      "type": "function",
      "constant": true
    },
    {
      "inputs": [
        {
          "internalType": "uint256",
          "name": "",
          "type": "uint256"
        }
      ],
      "name": "vaccineBatchIds",
      "outputs": [
        {
          "internalType": "uint256",
          "name": "",
          "type": "uint256"
        }
      ],
      "stateMutability": "view",
      "type": "function",
      "constant": true
    },
    {
      "inputs": [
        {
          "internalType": "uint256",
          "name": "",
          "type": "uint256"
        }
      ],
      "name": "vaccineBatches",
      "outputs": [
        {
          "internalType": "uint256",
          "name": "id",
          "type": "uint256"
        },
        {
          "internalType": "string",
          "name": "brand",
          "type": "string"
        },
        {
          "internalType": "address",
          "name": "manufacturer",
          "type": "address"
        }
      ],
      "stateMutability": "view",
      "type": "function",
      "constant": true
    },
    {
      "inputs": [
        {
          "internalType": "address",
          "name": "_id",
          "type": "address"
        },
        {
          "internalType": "string",
          "name": "_mode",
          "type": "string"
        }
      ],
      "name": "addEntity",
      "outputs": [],
      "stateMutability": "nonpayable",
      "type": "function"
    },
    {
      "inputs": [
        {
          "internalType": "string",
          "name": "brand",
          "type": "string"
        },
        {
          "internalType": "address",
          "name": "manufacturer",
          "type": "address"
        }
      ],
      "name": "addVaccineBatch",
      "outputs": [
        {
          "internalType": "uint256",
          "name": "",
          "type": "uint256"
        }
      ],
      "stateMutability": "nonpayable",
      "type": "function"
    },
    {
      "inputs": [
        {
          "internalType": "address",
          "name": "_issuer",
          "type": "address"
        },
        {
          "internalType": "address",
          "name": "_prover",
          "type": "address"
        },
        {
          "internalType": "bytes",
          "name": "signature",
          "type": "bytes"
        }
      ],
      "name": "issueCertificate",
      "outputs": [
        {
          "internalType": "uint256",
          "name": "",
          "type": "uint256"
        }
      ],
      "stateMutability": "nonpayable",
      "type": "function"
    },
    {
      "inputs": [
        {
          "internalType": "uint256",
          "name": "id",
          "type": "uint256"
        },
        {
          "internalType": "address",
          "name": "issuer",
          "type": "address"
        }
      ],
      "name": "isMatchingSignature",
      "outputs": [
        {
          "internalType": "bool",
          "name": "",
          "type": "bool"
        }
      ],
      "stateMutability": "view",
      "type": "function",
      "constant": true
    }
  ],
  "bytecode": "0x608060405234801561001057600080fd5b5061227c806100206000396000f3fe608060405234801561001057600080fd5b506004361061009e5760003560e01c80637aefaf39116100665780637aefaf39146101875780637af3bb2b146101b7578063b5bad46d146101e7578063c44b157714610203578063fc79b0a9146102335761009e565b806303a692b9146100a35780630f9c774d146100d55780631d8ee48a146101055780634851a01d14610136578063663b3e2214610154575b600080fd5b6100bd60048036038101906100b891906113be565b610263565b6040516100cc939291906114d4565b60405180910390f35b6100ef60048036038101906100ea91906113be565b610335565b6040516100fc9190611512565b60405180910390f35b61011f600480360381019061011a9190611559565b610359565b60405161012d9291906115fd565b60405180910390f35b61013e6103aa565b60405161014b9190611512565b60405180910390f35b61016e600480360381019061016991906113be565b6103af565b60405161017e94939291906117a7565b60405180910390f35b6101a1600480360381019061019c91906113be565b61064d565b6040516101ae9190611512565b60405180910390f35b6101d160048036038101906101cc9190611936565b610671565b6040516101de9190611512565b60405180910390f35b61020160048036038101906101fc9190611a46565b610b82565b005b61021d60048036038101906102189190611aa2565b610d3f565b60405161022a9190611afd565b60405180910390f35b61024d60048036038101906102489190611b18565b611043565b60405161025a9190611512565b60405180910390f35b600260205280600052604060002060009150905080600001549080600101805461028c90611ba3565b80601f01602080910402602001604051908101604052809291908181526020018280546102b890611ba3565b80156103055780601f106102da57610100808354040283529160200191610305565b820191906000526020600020905b8154815290600101906020018083116102e857829003601f168201915b5050505050908060020160009054906101000a900473ffffffffffffffffffffffffffffffffffffffff16905083565b6001818154811061034557600080fd5b906000526020600020016000915090505481565b60046020528060005260406000206000915090508060000160009054906101000a900473ffffffffffffffffffffffffffffffffffffffff16908060000160149054906101000a900460ff16905082565b600281565b6003602052806000526040600020600091509050806000015490806001016040518060600160405290816000820160009054906101000a900473ffffffffffffffffffffffffffffffffffffffff1673ffffffffffffffffffffffffffffffffffffffff1673ffffffffffffffffffffffffffffffffffffffff1681526020016000820160149054906101000a900460ff16600281111561045357610452611586565b5b600281111561046557610464611586565b5b8152602001600182018054806020026020016040519081016040528092919081815260200182805480156104b857602002820191906000526020600020905b8154815260200190600101908083116104a4575b50505050508152505090806003016040518060600160405290816000820160009054906101000a900473ffffffffffffffffffffffffffffffffffffffff1673ffffffffffffffffffffffffffffffffffffffff1673ffffffffffffffffffffffffffffffffffffffff1681526020016000820160149054906101000a900460ff16600281111561054c5761054b611586565b5b600281111561055e5761055d611586565b5b8152602001600182018054806020026020016040519081016040528092919081815260200182805480156105b157602002820191906000526020600020905b81548152602001906001019080831161059d575b505050505081525050908060050180546105ca90611ba3565b80601f01602080910402602001604051908101604052809291908181526020018280546105f690611ba3565b80156106435780601f1061061857610100808354040283529160200191610643565b820191906000526020600020905b81548152906001019060200180831161062657829003601f168201915b5050505050905084565b6000818154811061065d57600080fd5b906000526020600020016000915090505481565b600080600460008673ffffffffffffffffffffffffffffffffffffffff1673ffffffffffffffffffffffffffffffffffffffff1681526020019081526020016000206040518060600160405290816000820160009054906101000a900473ffffffffffffffffffffffffffffffffffffffff1673ffffffffffffffffffffffffffffffffffffffff1673ffffffffffffffffffffffffffffffffffffffff1681526020016000820160149054906101000a900460ff16600281111561073957610738611586565b5b600281111561074b5761074a611586565b5b81526020016001820180548060200260200160405190810160405280929190818152602001828054801561079e57602002820191906000526020600020905b81548152602001906001019080831161078a575b5050505050815250509050600060028111156107bd576107bc611586565b5b816020015160028111156107d4576107d3611586565b5b146107de57600080fd5b6000600460008673ffffffffffffffffffffffffffffffffffffffff1673ffffffffffffffffffffffffffffffffffffffff1681526020019081526020016000206040518060600160405290816000820160009054906101000a900473ffffffffffffffffffffffffffffffffffffffff1673ffffffffffffffffffffffffffffffffffffffff1673ffffffffffffffffffffffffffffffffffffffff1681526020016000820160149054906101000a900460ff1660028111156108a5576108a4611586565b5b60028111156108b7576108b6611586565b5b81526020016001820180548060200260200160405190810160405280929190818152602001828054801561090a57602002820191906000526020600020905b8154815260200190600101908083116108f6575b50505050508152505090506001600281111561092957610928611586565b5b816020015160028111156109405761093f611586565b5b1461094a57600080fd5b60006001805490509050600060405180608001604052808381526020018581526020018481526020018781525090506001808054905090806001815401808255809150506001900390600052602060002001600090919091909150558060036000600180805490506109bc9190611c03565b81526020019081526020016000206000820151816000015560208201518160010160008201518160000160006101000a81548173ffffffffffffffffffffffffffffffffffffffff021916908373ffffffffffffffffffffffffffffffffffffffff16021790555060208201518160000160146101000a81548160ff02191690836002811115610a4f57610a4e611586565b5b02179055506040820151816001019080519060200190610a7092919061130a565b50505060408201518160030160008201518160000160006101000a81548173ffffffffffffffffffffffffffffffffffffffff021916908373ffffffffffffffffffffffffffffffffffffffff16021790555060208201518160000160146101000a81548160ff02191690836002811115610aee57610aed611586565b5b02179055506040820151816001019080519060200190610b0f92919061130a565b5050506060820151816005019081610b279190611de3565b509050507f14978ecf779f40583263061a7f39ddf83372ad98bd961d80aacc5089af28edbb8888604051610b5c929190611eb5565b60405180910390a160018080549050610b759190611c03565b9450505050509392505050565b6000610b8d826111e7565b90506000600267ffffffffffffffff811115610bac57610bab61180b565b5b604051908082528060200260200182016040528015610bda5781602001602082028036833780820191505090505b509050600060405180606001604052808673ffffffffffffffffffffffffffffffffffffffff168152602001846002811115610c1957610c18611586565b5b815260200183815250905080600460008773ffffffffffffffffffffffffffffffffffffffff1673ffffffffffffffffffffffffffffffffffffffff16815260200190815260200160002060008201518160000160006101000a81548173ffffffffffffffffffffffffffffffffffffffff021916908373ffffffffffffffffffffffffffffffffffffffff16021790555060208201518160000160146101000a81548160ff02191690836002811115610cd657610cd5611586565b5b02179055506040820151816001019080519060200190610cf792919061130a565b509050507ff5a37da00f0e4029ee2682b1919ee55d7e6f9d7492237aad9bd1aea7d53d4874816000015185604051610d30929190611ede565b60405180910390a15050505050565b6000806003600085815260200190815260200160002060405180608001604052908160008201548152602001600182016040518060600160405290816000820160009054906101000a900473ffffffffffffffffffffffffffffffffffffffff1673ffffffffffffffffffffffffffffffffffffffff1673ffffffffffffffffffffffffffffffffffffffff1681526020016000820160149054906101000a900460ff166002811115610df557610df4611586565b5b6002811115610e0757610e06611586565b5b815260200160018201805480602002602001604051908101604052809291908181526020018280548015610e5a57602002820191906000526020600020905b815481526020019060010190808311610e46575b5050505050815250508152602001600382016040518060600160405290816000820160009054906101000a900473ffffffffffffffffffffffffffffffffffffffff1673ffffffffffffffffffffffffffffffffffffffff1673ffffffffffffffffffffffffffffffffffffffff1681526020016000820160149054906101000a900460ff166002811115610ef257610ef1611586565b5b6002811115610f0457610f03611586565b5b815260200160018201805480602002602001604051908101604052809291908181526020018280548015610f5757602002820191906000526020600020905b815481526020019060010190808311610f43575b5050505050815250508152602001600582018054610f7490611ba3565b80601f0160208091040260200160405190810160405280929190818152602001828054610fa090611ba3565b8015610fed5780601f10610fc257610100808354040283529160200191610fed565b820191906000526020600020905b815481529060010190602001808311610fd057829003601f168201915b50505050508152505090508273ffffffffffffffffffffffffffffffffffffffff1681602001516000015173ffffffffffffffffffffffffffffffffffffffff161461103857600080fd5b600191505092915050565b600080600267ffffffffffffffff8111156110615761106061180b565b5b60405190808252806020026020018201604052801561108f5781602001602082028036833780820191505090505b509050600080805490509050600060405180608001604052808381526020018781526020018673ffffffffffffffffffffffffffffffffffffffff16815260200184815250905080600260008481526020019081526020016000206000820151816000015560208201518160010190816111099190611f69565b5060408201518160020160006101000a81548173ffffffffffffffffffffffffffffffffffffffff021916908373ffffffffffffffffffffffffffffffffffffffff160217905550606082015181600301908051906020019061116d92919061130a565b5090505060008290806001815401808255809150506001900390600052602060002001600090919091909150557fe85391abb5e51659c581dd95107048251657ee66755655cc08c9c0ec3a0a9139816000015182604001516040516111d392919061203b565b60405180910390a181935050505092915050565b600080826040516020016111fb91906120a0565b604051602081830303815290604052805190602001209050600060405160200161122490612103565b604051602081830303815290604052805190602001209050600060405160200161124d90612164565b6040516020818303038152906040528051906020012090506000604051602001611276906121c5565b6040516020818303038152906040528051906020012090508284036112a2576000945050505050611305565b8184036112b6576001945050505050611305565b8084036112ca576002945050505050611305565b6040517f08c379a00000000000000000000000000000000000000000000000000000000081526004016112fc90612226565b60405180910390fd5b919050565b828054828255906000526020600020908101928215611346579160200282015b8281111561134557825182559160200191906001019061132a565b5b5090506113539190611357565b5090565b5b80821115611370576000816000905550600101611358565b5090565b6000604051905090565b600080fd5b600080fd5b6000819050919050565b61139b81611388565b81146113a657600080fd5b50565b6000813590506113b881611392565b92915050565b6000602082840312156113d4576113d361137e565b5b60006113e2848285016113a9565b91505092915050565b6113f481611388565b82525050565b600081519050919050565b600082825260208201905092915050565b60005b83811015611434578082015181840152602081019050611419565b83811115611443576000848401525b50505050565b6000601f19601f8301169050919050565b6000611465826113fa565b61146f8185611405565b935061147f818560208601611416565b61148881611449565b840191505092915050565b600073ffffffffffffffffffffffffffffffffffffffff82169050919050565b60006114be82611493565b9050919050565b6114ce816114b3565b82525050565b60006060820190506114e960008301866113eb565b81810360208301526114fb818561145a565b905061150a60408301846114c5565b949350505050565b600060208201905061152760008301846113eb565b92915050565b611536816114b3565b811461154157600080fd5b50565b6000813590506115538161152d565b92915050565b60006020828403121561156f5761156e61137e565b5b600061157d84828501611544565b91505092915050565b7f4e487b7100000000000000000000000000000000000000000000000000000000600052602160045260246000fd5b600381106115c6576115c5611586565b5b50565b60008190506115d7826115b5565b919050565b60006115e7826115c9565b9050919050565b6115f7816115dc565b82525050565b600060408201905061161260008301856114c5565b61161f60208301846115ee565b9392505050565b61162f816114b3565b82525050565b61163e816115dc565b82525050565b600081519050919050565b600082825260208201905092915050565b6000819050602082019050919050565b61167981611388565b82525050565b600061168b8383611670565b60208301905092915050565b6000602082019050919050565b60006116af82611644565b6116b9818561164f565b93506116c483611660565b8060005b838110156116f55781516116dc888261167f565b97506116e783611697565b9250506001810190506116c8565b5085935050505092915050565b600060608301600083015161171a6000860182611626565b50602083015161172d6020860182611635565b506040830151848203604086015261174582826116a4565b9150508091505092915050565b600081519050919050565b600082825260208201905092915050565b600061177982611752565b611783818561175d565b9350611793818560208601611416565b61179c81611449565b840191505092915050565b60006080820190506117bc60008301876113eb565b81810360208301526117ce8186611702565b905081810360408301526117e28185611702565b905081810360608301526117f6818461176e565b905095945050505050565b600080fd5b600080fd5b7f4e487b7100000000000000000000000000000000000000000000000000000000600052604160045260246000fd5b61184382611449565b810181811067ffffffffffffffff821117156118625761186161180b565b5b80604052505050565b6000611875611374565b9050611881828261183a565b919050565b600067ffffffffffffffff8211156118a1576118a061180b565b5b6118aa82611449565b9050602081019050919050565b82818337600083830152505050565b60006118d96118d484611886565b61186b565b9050828152602081018484840111156118f5576118f4611806565b5b6119008482856118b7565b509392505050565b600082601f83011261191d5761191c611801565b5b813561192d8482602086016118c6565b91505092915050565b60008060006060848603121561194f5761194e61137e565b5b600061195d86828701611544565b935050602061196e86828701611544565b925050604084013567ffffffffffffffff81111561198f5761198e611383565b5b61199b86828701611908565b9150509250925092565b600067ffffffffffffffff8211156119c0576119bf61180b565b5b6119c982611449565b9050602081019050919050565b60006119e96119e4846119a5565b61186b565b905082815260208101848484011115611a0557611a04611806565b5b611a108482856118b7565b509392505050565b600082601f830112611a2d57611a2c611801565b5b8135611a3d8482602086016119d6565b91505092915050565b60008060408385031215611a5d57611a5c61137e565b5b6000611a6b85828601611544565b925050602083013567ffffffffffffffff811115611a8c57611a8b611383565b5b611a9885828601611a18565b9150509250929050565b60008060408385031215611ab957611ab861137e565b5b6000611ac7858286016113a9565b9250506020611ad885828601611544565b9150509250929050565b60008115159050919050565b611af781611ae2565b82525050565b6000602082019050611b126000830184611aee565b92915050565b60008060408385031215611b2f57611b2e61137e565b5b600083013567ffffffffffffffff811115611b4d57611b4c611383565b5b611b5985828601611a18565b9250506020611b6a85828601611544565b9150509250929050565b7f4e487b7100000000000000000000000000000000000000000000000000000000600052602260045260246000fd5b60006002820490506001821680611bbb57607f821691505b602082108103611bce57611bcd611b74565b5b50919050565b7f4e487b7100000000000000000000000000000000000000000000000000000000600052601160045260246000fd5b6000611c0e82611388565b9150611c1983611388565b925082821015611c2c57611c2b611bd4565b5b828203905092915050565b60008190508160005260206000209050919050565b60006020601f8301049050919050565b600082821b905092915050565b600060088302611c997fffffffffffffffffffffffffffffffffffffffffffffffffffffffffffffffff82611c5c565b611ca38683611c5c565b95508019841693508086168417925050509392505050565b6000819050919050565b6000611ce0611cdb611cd684611388565b611cbb565b611388565b9050919050565b6000819050919050565b611cfa83611cc5565b611d0e611d0682611ce7565b848454611c69565b825550505050565b600090565b611d23611d16565b611d2e818484611cf1565b505050565b5b81811015611d5257611d47600082611d1b565b600181019050611d34565b5050565b601f821115611d9757611d6881611c37565b611d7184611c4c565b81016020851015611d80578190505b611d94611d8c85611c4c565b830182611d33565b50505b505050565b600082821c905092915050565b6000611dba60001984600802611d9c565b1980831691505092915050565b6000611dd38383611da9565b9150826002028217905092915050565b611dec82611752565b67ffffffffffffffff811115611e0557611e0461180b565b5b611e0f8254611ba3565b611e1a828285611d56565b600060209050601f831160018114611e4d5760008415611e3b578287015190505b611e458582611dc7565b865550611ead565b601f198416611e5b86611c37565b60005b82811015611e8357848901518255600182019150602085019450602081019050611e5e565b86831015611ea05784890151611e9c601f891682611da9565b8355505b6001600288020188555050505b505050505050565b6000604082019050611eca60008301856114c5565b611ed760208301846114c5565b9392505050565b6000604082019050611ef360008301856114c5565b8181036020830152611f05818461145a565b90509392505050565b60008190508160005260206000209050919050565b601f821115611f6457611f3581611f0e565b611f3e84611c4c565b81016020851015611f4d578190505b611f61611f5985611c4c565b830182611d33565b50505b505050565b611f72826113fa565b67ffffffffffffffff811115611f8b57611f8a61180b565b5b611f958254611ba3565b611fa0828285611f23565b600060209050601f831160018114611fd35760008415611fc1578287015190505b611fcb8582611dc7565b865550612033565b601f198416611fe186611f0e565b60005b8281101561200957848901518255600182019150602085019450602081019050611fe4565b868310156120265784890151612022601f891682611da9565b8355505b6001600288020188555050505b505050505050565b600060408201905061205060008301856113eb565b61205d60208301846114c5565b9392505050565b600081905092915050565b600061207a826113fa565b6120848185612064565b9350612094818560208601611416565b80840191505092915050565b60006120ac828461206f565b915081905092915050565b7f4953535545520000000000000000000000000000000000000000000000000000600082015250565b60006120ed600683612064565b91506120f8826120b7565b600682019050919050565b600061210e826120e0565b9150819050919050565b7f50524f5645520000000000000000000000000000000000000000000000000000600082015250565b600061214e600683612064565b915061215982612118565b600682019050919050565b600061216f82612141565b9150819050919050565b7f5645524946494552000000000000000000000000000000000000000000000000600082015250565b60006121af600883612064565b91506121ba82612179565b600882019050919050565b60006121d0826121a2565b9150819050919050565b7f726563656976656420696e76616c696420656e74697479206d6f646500000000600082015250565b6000612210601c83611405565b915061221b826121da565b602082019050919050565b6000602082019050818103600083015261223f81612203565b905091905056fea26469706673582212202643d3b4665d6d2804e2202a32e2c02449723c7832ff83d4683f052c68f3866c64736f6c634300080f0033",
  "immutableReferences": {},
  "source": "// SPDX-License-Identifier: UNLICENSED\npragma solidity >=0.7.0 <0.9.0;\n\nlibrary CryptoSuite {\n    function splitSignature(bytes memory sig)\n        internal\n        pure\n        returns (\n            uint8 v,\n            bytes32 r,\n            bytes32 s\n        )\n    {\n        require(sig.length == 65);\n\n        assembly {\n            r := mload(add(sig, 3))\n            s := mload(add(sig, 64))\n            v := byte(0, mload(add(sig, 96)))\n        }\n\n        return (v, r, s);\n    }\n\n    function recoverSigner(bytes32 message, bytes memory sig)\n        internal\n        pure\n        returns (address)\n    {\n        (uint8 v, bytes32 r, bytes32 s) = splitSignature(sig);\n        return ecrecover(message, v, r, s);\n    }\n}\n\ncontract ColdChain {\n    enum Mode {\n        ISSUER,\n        PROVER,\n        VERIFIER\n    }\n    struct Entity {\n        address id;\n        Mode mode;\n        uint[] certificateIds;\n    }\n    struct VaccineBatch {\n        uint id;\n        string brand;\n        address manufacturer;\n        uint[] certificateIds;\n    }\n    struct Certificate {\n        uint id;\n        Entity issuer;\n        Entity prover;\n        bytes signature;\n    }\n    uint public constant MAX_CERTIFICATIONS = 2;\n    uint[] public vaccineBatchIds;\n    uint[] public certificateIds;\n\n    mapping(uint => VaccineBatch) public vaccineBatches;\n    mapping(uint => Certificate) public certificates;\n    mapping(address => Entity) public entities;\n\n    event AddEntity(address entityId, string entityMode);\n    event AddVaccineBatch(uint vaccineBatchId, address manufacturer);\n    event IssueCertificate(address issuer, address prover);\n\n    function addEntity(address _id, string memory _mode) public {\n        Mode mode = unmarshalMode(_mode);\n        uint[] memory _certificateIds = new uint[](MAX_CERTIFICATIONS);\n        Entity memory entity = Entity(_id, mode, _certificateIds);\n        entities[_id] = entity;\n        emit AddEntity(entity.id, _mode);\n    }\n\n    function addVaccineBatch(string memory brand, address manufacturer)\n        public\n        returns (uint)\n    {\n        uint[] memory _certificateIds = new uint[](MAX_CERTIFICATIONS);\n        uint id = vaccineBatchIds.length;\n        VaccineBatch memory batch = VaccineBatch(\n            id,\n            brand,\n            manufacturer,\n            _certificateIds\n        );\n        vaccineBatches[id] = batch;\n        vaccineBatchIds.push(id);\n        emit AddVaccineBatch(batch.id, batch.manufacturer);\n        return id;\n    }\n\n    function issueCertificate(\n        address _issuer,\n        address _prover,\n        bytes memory signature\n    ) public returns (uint) {\n        Entity memory issuer = entities[_issuer];\n        require(issuer.mode == Mode.ISSUER);\n\n        Entity memory prover = entities[_prover];\n        require(prover.mode == Mode.PROVER);\n\n        uint id = certificateIds.length;\n        Certificate memory certificate = Certificate(\n            id,\n            issuer,\n            prover,\n            signature\n        );\n        certificateIds.push(certificateIds.length);\n        certificates[certificateIds.length - 1] = certificate;\n        emit IssueCertificate(_issuer, _prover);\n        return certificateIds.length - 1;\n    }\n\n    function unmarshalMode(string memory _mode)\n        private\n        pure\n        returns (Mode mode)\n    {\n        bytes32 encodedMode = keccak256(abi.encodePacked(_mode));\n        bytes32 encodedMode0 = keccak256(abi.encodePacked(\"ISSUER\"));\n        bytes32 encodedMode1 = keccak256(abi.encodePacked(\"PROVER\"));\n        bytes32 encodedMode2 = keccak256(abi.encodePacked(\"VERIFIER\"));\n\n        if (encodedMode == encodedMode0) {\n            return Mode.ISSUER;\n        }\n\n        if (encodedMode == encodedMode1) {\n            return Mode.PROVER;\n        }\n\n        if (encodedMode == encodedMode2) {\n            return Mode.VERIFIER;\n        }\n\n        revert(\"received invalid entity mode\");\n    }\n\n    function isMatchingSignature(uint id, address issuer)\n        public\n        view\n        returns (bool)\n    {\n        Certificate memory certificate = certificates[id];\n        require(certificate.issuer.id == issuer);\n        return true;\n    }\n}\n",
  "sourcePath": "C:\\Users\\user\\Desktop\\javascript-calismalari\\supply-chain\\contracts\\ColdChain.sol",
  "compiler": {
    "name": "solc",
    "version": "0.8.15+commit.e14f2714.Emscripten.clang"
  },
  "schemaVersion": "3.4.4",
  "updatedAt": "2022-07-05T23:13:11.409Z",
  "networkType": "ethereum",
  "devdoc": {
    "kind": "dev",
    "methods": {},
    "version": 1
  },
  "userdoc": {
    "kind": "user",
    "methods": {},
    "version": 1
  }
}