{
  "contractName": "ColdChain",
  "abi": [
    {
      "anonymous": false,
      "inputs": [
        {
          "indexed": false,
          "internalType": "address",
          "name": "entityId",
          "type": "address"
        },
        {
          "indexed": false,
          "internalType": "string",
          "name": "entityMode",
          "type": "string"
        }
      ],
      "name": "AddEntity",
      "type": "event"
    },
    {
      "anonymous": false,
      "inputs": [
        {
          "indexed": false,
          "internalType": "uint256",
          "name": "vaccineBatchId",
          "type": "uint256"
        },
        {
          "indexed": false,
          "internalType": "address",
          "name": "manufacturer",
          "type": "address"
        }
      ],
      "name": "AddVaccineBatch",
      "type": "event"
    },
    {
      "anonymous": false,
      "inputs": [
        {
          "indexed": false,
          "internalType": "address",
          "name": "issuer",
          "type": "address"
        },
        {
          "indexed": false,
          "internalType": "address",
          "name": "prover",
          "type": "address"
        },
        {
          "indexed": false,
          "internalType": "uint256",
          "name": "certificateId",
          "type": "uint256"
        }
      ],
      "name": "IssueCertificate",
      "type": "event"
    },
    {
      "inputs": [],
      "name": "MAX_CERTIFICATIONS",
      "outputs": [
        {
          "internalType": "uint256",
          "name": "",
          "type": "uint256"
        }
      ],
      "stateMutability": "view",
      "type": "function"
    },
    {
      "inputs": [
        {
          "internalType": "uint256",
          "name": "",
          "type": "uint256"
        }
      ],
      "name": "certificateIds",
      "outputs": [
        {
          "internalType": "uint256",
          "name": "",
          "type": "uint256"
        }
      ],
      "stateMutability": "view",
      "type": "function"
    },
    {
      "inputs": [
        {
          "internalType": "uint256",
          "name": "",
          "type": "uint256"
        }
      ],
      "name": "certificates",
      "outputs": [
        {
          "internalType": "uint256",
          "name": "id",
          "type": "uint256"
        },
        {
          "components": [
            {
              "internalType": "address",
              "name": "id",
              "type": "address"
            },
            {
              "internalType": "enum ColdChain.Mode",
              "name": "mode",
              "type": "uint8"
            },
            {
              "internalType": "uint256[]",
              "name": "certificateIds",
              "type": "uint256[]"
            }
          ],
          "internalType": "struct ColdChain.Entity",
          "name": "issuer",
          "type": "tuple"
        },
        {
          "components": [
            {
              "internalType": "address",
              "name": "id",
              "type": "address"
            },
            {
              "internalType": "enum ColdChain.Mode",
              "name": "mode",
              "type": "uint8"
            },
            {
              "internalType": "uint256[]",
              "name": "certificateIds",
              "type": "uint256[]"
            }
          ],
          "internalType": "struct ColdChain.Entity",
          "name": "prover",
          "type": "tuple"
        },
        {
          "internalType": "bytes",
          "name": "signature",
          "type": "bytes"
        }
      ],
      "stateMutability": "view",
      "type": "function"
    },
    {
      "inputs": [
        {
          "internalType": "address",
          "name": "",
          "type": "address"
        }
      ],
      "name": "entities",
      "outputs": [
        {
          "internalType": "address",
          "name": "id",
          "type": "address"
        },
        {
          "internalType": "enum ColdChain.Mode",
          "name": "mode",
          "type": "uint8"
        }
      ],
      "stateMutability": "view",
      "type": "function"
    },
    {
      "inputs": [
        {
          "internalType": "uint256",
          "name": "",
          "type": "uint256"
        }
      ],
      "name": "vaccineBatchIds",
      "outputs": [
        {
          "internalType": "uint256",
          "name": "",
          "type": "uint256"
        }
      ],
      "stateMutability": "view",
      "type": "function"
    },
    {
      "inputs": [
        {
          "internalType": "uint256",
          "name": "",
          "type": "uint256"
        }
      ],
      "name": "vaccineBatches",
      "outputs": [
        {
          "internalType": "uint256",
          "name": "id",
          "type": "uint256"
        },
        {
          "internalType": "string",
          "name": "brand",
          "type": "string"
        },
        {
          "internalType": "address",
          "name": "manufacturer",
          "type": "address"
        }
      ],
      "stateMutability": "view",
      "type": "function"
    },
    {
      "inputs": [
        {
          "internalType": "address",
          "name": "_id",
          "type": "address"
        },
        {
          "internalType": "string",
          "name": "_mode",
          "type": "string"
        }
      ],
      "name": "addEntity",
      "outputs": [],
      "stateMutability": "nonpayable",
      "type": "function"
    },
    {
      "inputs": [
        {
          "internalType": "string",
          "name": "brand",
          "type": "string"
        },
        {
          "internalType": "address",
          "name": "manufacturer",
          "type": "address"
        }
      ],
      "name": "addVaccineBatch",
      "outputs": [
        {
          "internalType": "uint256",
          "name": "",
          "type": "uint256"
        }
      ],
      "stateMutability": "nonpayable",
      "type": "function"
    },
    {
      "inputs": [
        {
          "internalType": "address",
          "name": "_issuer",
          "type": "address"
        },
        {
          "internalType": "address",
          "name": "_prover",
          "type": "address"
        },
        {
          "internalType": "bytes",
          "name": "signature",
          "type": "bytes"
        }
      ],
      "name": "issueCertificate",
      "outputs": [
        {
          "internalType": "uint256",
          "name": "",
          "type": "uint256"
        }
      ],
      "stateMutability": "nonpayable",
      "type": "function"
    },
    {
      "inputs": [
        {
          "internalType": "uint256",
          "name": "id",
          "type": "uint256"
        },
        {
          "internalType": "address",
          "name": "issuer",
          "type": "address"
        }
      ],
      "name": "isMatchingSignature",
      "outputs": [
        {
          "internalType": "bool",
          "name": "",
          "type": "bool"
        }
      ],
      "stateMutability": "view",
      "type": "function"
    }
  ],
  "bytecode": "0x608060405234801561001057600080fd5b5061229c806100206000396000f3fe608060405234801561001057600080fd5b506004361061009e5760003560e01c80637aefaf39116100665780637aefaf39146101875780637af3bb2b146101b7578063b5bad46d146101e7578063c44b157714610203578063fc79b0a9146102335761009e565b806303a692b9146100a35780630f9c774d146100d55780631d8ee48a146101055780634851a01d14610136578063663b3e2214610154575b600080fd5b6100bd60048036038101906100b891906113d0565b610263565b6040516100cc939291906114e6565b60405180910390f35b6100ef60048036038101906100ea91906113d0565b610335565b6040516100fc9190611524565b60405180910390f35b61011f600480360381019061011a919061156b565b610359565b60405161012d92919061160f565b60405180910390f35b61013e6103aa565b60405161014b9190611524565b60405180910390f35b61016e600480360381019061016991906113d0565b6103af565b60405161017e94939291906117b9565b60405180910390f35b6101a1600480360381019061019c91906113d0565b61064d565b6040516101ae9190611524565b60405180910390f35b6101d160048036038101906101cc9190611948565b610671565b6040516101de9190611524565b60405180910390f35b61020160048036038101906101fc9190611a58565b610b94565b005b61021d60048036038101906102189190611ab4565b610d51565b60405161022a9190611b0f565b60405180910390f35b61024d60048036038101906102489190611b2a565b611055565b60405161025a9190611524565b60405180910390f35b600260205280600052604060002060009150905080600001549080600101805461028c90611bb5565b80601f01602080910402602001604051908101604052809291908181526020018280546102b890611bb5565b80156103055780601f106102da57610100808354040283529160200191610305565b820191906000526020600020905b8154815290600101906020018083116102e857829003601f168201915b5050505050908060020160009054906101000a900473ffffffffffffffffffffffffffffffffffffffff16905083565b6001818154811061034557600080fd5b906000526020600020016000915090505481565b60046020528060005260406000206000915090508060000160009054906101000a900473ffffffffffffffffffffffffffffffffffffffff16908060000160149054906101000a900460ff16905082565b600281565b6003602052806000526040600020600091509050806000015490806001016040518060600160405290816000820160009054906101000a900473ffffffffffffffffffffffffffffffffffffffff1673ffffffffffffffffffffffffffffffffffffffff1673ffffffffffffffffffffffffffffffffffffffff1681526020016000820160149054906101000a900460ff16600281111561045357610452611598565b5b600281111561046557610464611598565b5b8152602001600182018054806020026020016040519081016040528092919081815260200182805480156104b857602002820191906000526020600020905b8154815260200190600101908083116104a4575b50505050508152505090806003016040518060600160405290816000820160009054906101000a900473ffffffffffffffffffffffffffffffffffffffff1673ffffffffffffffffffffffffffffffffffffffff1673ffffffffffffffffffffffffffffffffffffffff1681526020016000820160149054906101000a900460ff16600281111561054c5761054b611598565b5b600281111561055e5761055d611598565b5b8152602001600182018054806020026020016040519081016040528092919081815260200182805480156105b157602002820191906000526020600020905b81548152602001906001019080831161059d575b505050505081525050908060050180546105ca90611bb5565b80601f01602080910402602001604051908101604052809291908181526020018280546105f690611bb5565b80156106435780601f1061061857610100808354040283529160200191610643565b820191906000526020600020905b81548152906001019060200180831161062657829003601f168201915b5050505050905084565b6000818154811061065d57600080fd5b906000526020600020016000915090505481565b600080600460008673ffffffffffffffffffffffffffffffffffffffff1673ffffffffffffffffffffffffffffffffffffffff1681526020019081526020016000206040518060600160405290816000820160009054906101000a900473ffffffffffffffffffffffffffffffffffffffff1673ffffffffffffffffffffffffffffffffffffffff1673ffffffffffffffffffffffffffffffffffffffff1681526020016000820160149054906101000a900460ff16600281111561073957610738611598565b5b600281111561074b5761074a611598565b5b81526020016001820180548060200260200160405190810160405280929190818152602001828054801561079e57602002820191906000526020600020905b81548152602001906001019080831161078a575b5050505050815250509050600060028111156107bd576107bc611598565b5b816020015160028111156107d4576107d3611598565b5b146107de57600080fd5b6000600460008673ffffffffffffffffffffffffffffffffffffffff1673ffffffffffffffffffffffffffffffffffffffff1681526020019081526020016000206040518060600160405290816000820160009054906101000a900473ffffffffffffffffffffffffffffffffffffffff1673ffffffffffffffffffffffffffffffffffffffff1673ffffffffffffffffffffffffffffffffffffffff1681526020016000820160149054906101000a900460ff1660028111156108a5576108a4611598565b5b60028111156108b7576108b6611598565b5b81526020016001820180548060200260200160405190810160405280929190818152602001828054801561090a57602002820191906000526020600020905b8154815260200190600101908083116108f6575b50505050508152505090506001600281111561092957610928611598565b5b816020015160028111156109405761093f611598565b5b1461094a57600080fd5b60006001805490509050600060405180608001604052808381526020018581526020018481526020018781525090506001808054905090806001815401808255809150506001900390600052602060002001600090919091909150558060036000600180805490506109bc9190611c15565b81526020019081526020016000206000820151816000015560208201518160010160008201518160000160006101000a81548173ffffffffffffffffffffffffffffffffffffffff021916908373ffffffffffffffffffffffffffffffffffffffff16021790555060208201518160000160146101000a81548160ff02191690836002811115610a4f57610a4e611598565b5b02179055506040820151816001019080519060200190610a7092919061131c565b50505060408201518160030160008201518160000160006101000a81548173ffffffffffffffffffffffffffffffffffffffff021916908373ffffffffffffffffffffffffffffffffffffffff16021790555060208201518160000160146101000a81548160ff02191690836002811115610aee57610aed611598565b5b02179055506040820151816001019080519060200190610b0f92919061131c565b5050506060820151816005019081610b279190611df5565b509050507fc9e3e855764ebb21ed83dcdf8ed5e1398c752d6446308e092c28a84a77a199bd888860018080549050610b5f9190611c15565b604051610b6e93929190611ec7565b60405180910390a160018080549050610b879190611c15565b9450505050509392505050565b6000610b9f826111f9565b90506000600267ffffffffffffffff811115610bbe57610bbd61181d565b5b604051908082528060200260200182016040528015610bec5781602001602082028036833780820191505090505b509050600060405180606001604052808673ffffffffffffffffffffffffffffffffffffffff168152602001846002811115610c2b57610c2a611598565b5b815260200183815250905080600460008773ffffffffffffffffffffffffffffffffffffffff1673ffffffffffffffffffffffffffffffffffffffff16815260200190815260200160002060008201518160000160006101000a81548173ffffffffffffffffffffffffffffffffffffffff021916908373ffffffffffffffffffffffffffffffffffffffff16021790555060208201518160000160146101000a81548160ff02191690836002811115610ce857610ce7611598565b5b02179055506040820151816001019080519060200190610d0992919061131c565b509050507ff5a37da00f0e4029ee2682b1919ee55d7e6f9d7492237aad9bd1aea7d53d4874816000015185604051610d42929190611efe565b60405180910390a15050505050565b6000806003600085815260200190815260200160002060405180608001604052908160008201548152602001600182016040518060600160405290816000820160009054906101000a900473ffffffffffffffffffffffffffffffffffffffff1673ffffffffffffffffffffffffffffffffffffffff1673ffffffffffffffffffffffffffffffffffffffff1681526020016000820160149054906101000a900460ff166002811115610e0757610e06611598565b5b6002811115610e1957610e18611598565b5b815260200160018201805480602002602001604051908101604052809291908181526020018280548015610e6c57602002820191906000526020600020905b815481526020019060010190808311610e58575b5050505050815250508152602001600382016040518060600160405290816000820160009054906101000a900473ffffffffffffffffffffffffffffffffffffffff1673ffffffffffffffffffffffffffffffffffffffff1673ffffffffffffffffffffffffffffffffffffffff1681526020016000820160149054906101000a900460ff166002811115610f0457610f03611598565b5b6002811115610f1657610f15611598565b5b815260200160018201805480602002602001604051908101604052809291908181526020018280548015610f6957602002820191906000526020600020905b815481526020019060010190808311610f55575b5050505050815250508152602001600582018054610f8690611bb5565b80601f0160208091040260200160405190810160405280929190818152602001828054610fb290611bb5565b8015610fff5780601f10610fd457610100808354040283529160200191610fff565b820191906000526020600020905b815481529060010190602001808311610fe257829003601f168201915b50505050508152505090508273ffffffffffffffffffffffffffffffffffffffff1681602001516000015173ffffffffffffffffffffffffffffffffffffffff161461104a57600080fd5b600191505092915050565b600080600267ffffffffffffffff8111156110735761107261181d565b5b6040519080825280602002602001820160405280156110a15781602001602082028036833780820191505090505b509050600080805490509050600060405180608001604052808381526020018781526020018673ffffffffffffffffffffffffffffffffffffffff168152602001848152509050806002600084815260200190815260200160002060008201518160000155602082015181600101908161111b9190611f89565b5060408201518160020160006101000a81548173ffffffffffffffffffffffffffffffffffffffff021916908373ffffffffffffffffffffffffffffffffffffffff160217905550606082015181600301908051906020019061117f92919061131c565b5090505060008290806001815401808255809150506001900390600052602060002001600090919091909150557fe85391abb5e51659c581dd95107048251657ee66755655cc08c9c0ec3a0a9139816000015182604001516040516111e592919061205b565b60405180910390a181935050505092915050565b6000808260405160200161120d91906120c0565b604051602081830303815290604052805190602001209050600060405160200161123690612123565b604051602081830303815290604052805190602001209050600060405160200161125f90612184565b6040516020818303038152906040528051906020012090506000604051602001611288906121e5565b6040516020818303038152906040528051906020012090508284036112b4576000945050505050611317565b8184036112c8576001945050505050611317565b8084036112dc576002945050505050611317565b6040517f08c379a000000000000000000000000000000000000000000000000000000000815260040161130e90612246565b60405180910390fd5b919050565b828054828255906000526020600020908101928215611358579160200282015b8281111561135757825182559160200191906001019061133c565b5b5090506113659190611369565b5090565b5b8082111561138257600081600090555060010161136a565b5090565b6000604051905090565b600080fd5b600080fd5b6000819050919050565b6113ad8161139a565b81146113b857600080fd5b50565b6000813590506113ca816113a4565b92915050565b6000602082840312156113e6576113e5611390565b5b60006113f4848285016113bb565b91505092915050565b6114068161139a565b82525050565b600081519050919050565b600082825260208201905092915050565b60005b8381101561144657808201518184015260208101905061142b565b83811115611455576000848401525b50505050565b6000601f19601f8301169050919050565b60006114778261140c565b6114818185611417565b9350611491818560208601611428565b61149a8161145b565b840191505092915050565b600073ffffffffffffffffffffffffffffffffffffffff82169050919050565b60006114d0826114a5565b9050919050565b6114e0816114c5565b82525050565b60006060820190506114fb60008301866113fd565b818103602083015261150d818561146c565b905061151c60408301846114d7565b949350505050565b600060208201905061153960008301846113fd565b92915050565b611548816114c5565b811461155357600080fd5b50565b6000813590506115658161153f565b92915050565b60006020828403121561158157611580611390565b5b600061158f84828501611556565b91505092915050565b7f4e487b7100000000000000000000000000000000000000000000000000000000600052602160045260246000fd5b600381106115d8576115d7611598565b5b50565b60008190506115e9826115c7565b919050565b60006115f9826115db565b9050919050565b611609816115ee565b82525050565b600060408201905061162460008301856114d7565b6116316020830184611600565b9392505050565b611641816114c5565b82525050565b611650816115ee565b82525050565b600081519050919050565b600082825260208201905092915050565b6000819050602082019050919050565b61168b8161139a565b82525050565b600061169d8383611682565b60208301905092915050565b6000602082019050919050565b60006116c182611656565b6116cb8185611661565b93506116d683611672565b8060005b838110156117075781516116ee8882611691565b97506116f9836116a9565b9250506001810190506116da565b5085935050505092915050565b600060608301600083015161172c6000860182611638565b50602083015161173f6020860182611647565b506040830151848203604086015261175782826116b6565b9150508091505092915050565b600081519050919050565b600082825260208201905092915050565b600061178b82611764565b611795818561176f565b93506117a5818560208601611428565b6117ae8161145b565b840191505092915050565b60006080820190506117ce60008301876113fd565b81810360208301526117e08186611714565b905081810360408301526117f48185611714565b905081810360608301526118088184611780565b905095945050505050565b600080fd5b600080fd5b7f4e487b7100000000000000000000000000000000000000000000000000000000600052604160045260246000fd5b6118558261145b565b810181811067ffffffffffffffff821117156118745761187361181d565b5b80604052505050565b6000611887611386565b9050611893828261184c565b919050565b600067ffffffffffffffff8211156118b3576118b261181d565b5b6118bc8261145b565b9050602081019050919050565b82818337600083830152505050565b60006118eb6118e684611898565b61187d565b90508281526020810184848401111561190757611906611818565b5b6119128482856118c9565b509392505050565b600082601f83011261192f5761192e611813565b5b813561193f8482602086016118d8565b91505092915050565b60008060006060848603121561196157611960611390565b5b600061196f86828701611556565b935050602061198086828701611556565b925050604084013567ffffffffffffffff8111156119a1576119a0611395565b5b6119ad8682870161191a565b9150509250925092565b600067ffffffffffffffff8211156119d2576119d161181d565b5b6119db8261145b565b9050602081019050919050565b60006119fb6119f6846119b7565b61187d565b905082815260208101848484011115611a1757611a16611818565b5b611a228482856118c9565b509392505050565b600082601f830112611a3f57611a3e611813565b5b8135611a4f8482602086016119e8565b91505092915050565b60008060408385031215611a6f57611a6e611390565b5b6000611a7d85828601611556565b925050602083013567ffffffffffffffff811115611a9e57611a9d611395565b5b611aaa85828601611a2a565b9150509250929050565b60008060408385031215611acb57611aca611390565b5b6000611ad9858286016113bb565b9250506020611aea85828601611556565b9150509250929050565b60008115159050919050565b611b0981611af4565b82525050565b6000602082019050611b246000830184611b00565b92915050565b60008060408385031215611b4157611b40611390565b5b600083013567ffffffffffffffff811115611b5f57611b5e611395565b5b611b6b85828601611a2a565b9250506020611b7c85828601611556565b9150509250929050565b7f4e487b7100000000000000000000000000000000000000000000000000000000600052602260045260246000fd5b60006002820490506001821680611bcd57607f821691505b602082108103611be057611bdf611b86565b5b50919050565b7f4e487b7100000000000000000000000000000000000000000000000000000000600052601160045260246000fd5b6000611c208261139a565b9150611c2b8361139a565b925082821015611c3e57611c3d611be6565b5b828203905092915050565b60008190508160005260206000209050919050565b60006020601f8301049050919050565b600082821b905092915050565b600060088302611cab7fffffffffffffffffffffffffffffffffffffffffffffffffffffffffffffffff82611c6e565b611cb58683611c6e565b95508019841693508086168417925050509392505050565b6000819050919050565b6000611cf2611ced611ce88461139a565b611ccd565b61139a565b9050919050565b6000819050919050565b611d0c83611cd7565b611d20611d1882611cf9565b848454611c7b565b825550505050565b600090565b611d35611d28565b611d40818484611d03565b505050565b5b81811015611d6457611d59600082611d2d565b600181019050611d46565b5050565b601f821115611da957611d7a81611c49565b611d8384611c5e565b81016020851015611d92578190505b611da6611d9e85611c5e565b830182611d45565b50505b505050565b600082821c905092915050565b6000611dcc60001984600802611dae565b1980831691505092915050565b6000611de58383611dbb565b9150826002028217905092915050565b611dfe82611764565b67ffffffffffffffff811115611e1757611e1661181d565b5b611e218254611bb5565b611e2c828285611d68565b600060209050601f831160018114611e5f5760008415611e4d578287015190505b611e578582611dd9565b865550611ebf565b601f198416611e6d86611c49565b60005b82811015611e9557848901518255600182019150602085019450602081019050611e70565b86831015611eb25784890151611eae601f891682611dbb565b8355505b6001600288020188555050505b505050505050565b6000606082019050611edc60008301866114d7565b611ee960208301856114d7565b611ef660408301846113fd565b949350505050565b6000604082019050611f1360008301856114d7565b8181036020830152611f25818461146c565b90509392505050565b60008190508160005260206000209050919050565b601f821115611f8457611f5581611f2e565b611f5e84611c5e565b81016020851015611f6d578190505b611f81611f7985611c5e565b830182611d45565b50505b505050565b611f928261140c565b67ffffffffffffffff811115611fab57611faa61181d565b5b611fb58254611bb5565b611fc0828285611f43565b600060209050601f831160018114611ff35760008415611fe1578287015190505b611feb8582611dd9565b865550612053565b601f19841661200186611f2e565b60005b8281101561202957848901518255600182019150602085019450602081019050612004565b868310156120465784890151612042601f891682611dbb565b8355505b6001600288020188555050505b505050505050565b600060408201905061207060008301856113fd565b61207d60208301846114d7565b9392505050565b600081905092915050565b600061209a8261140c565b6120a48185612084565b93506120b4818560208601611428565b80840191505092915050565b60006120cc828461208f565b915081905092915050565b7f4953535545520000000000000000000000000000000000000000000000000000600082015250565b600061210d600683612084565b9150612118826120d7565b600682019050919050565b600061212e82612100565b9150819050919050565b7f50524f5645520000000000000000000000000000000000000000000000000000600082015250565b600061216e600683612084565b915061217982612138565b600682019050919050565b600061218f82612161565b9150819050919050565b7f5645524946494552000000000000000000000000000000000000000000000000600082015250565b60006121cf600883612084565b91506121da82612199565b600882019050919050565b60006121f0826121c2565b9150819050919050565b7f726563656976656420696e76616c696420656e74697479206d6f646500000000600082015250565b6000612230601c83611417565b915061223b826121fa565b602082019050919050565b6000602082019050818103600083015261225f81612223565b905091905056fea2646970667358221220fc417e1b958c9bf3bcabeddb2f1ed299a7dacae360b44334db0314fe68c2212e64736f6c634300080f0033",
  "immutableReferences": {},
  "source": "// SPDX-License-Identifier: UNLICENSED\npragma solidity >=0.7.0 <0.9.0;\n\nlibrary CryptoSuite {\n    function splitSignature(bytes memory sig)\n        internal\n        pure\n        returns (\n            uint8 v,\n            bytes32 r,\n            bytes32 s\n        )\n    {\n        require(sig.length == 65);\n\n        assembly {\n            r := mload(add(sig, 3))\n            s := mload(add(sig, 64))\n            v := byte(0, mload(add(sig, 96)))\n        }\n\n        return (v, r, s);\n    }\n\n    function recoverSigner(bytes32 message, bytes memory sig)\n        internal\n        pure\n        returns (address)\n    {\n        (uint8 v, bytes32 r, bytes32 s) = splitSignature(sig);\n        return ecrecover(message, v, r, s);\n    }\n}\n\ncontract ColdChain {\n    enum Mode {\n        ISSUER,\n        PROVER,\n        VERIFIER\n    }\n    struct Entity {\n        address id;\n        Mode mode;\n        uint[] certificateIds;\n    }\n    struct VaccineBatch {\n        uint id;\n        string brand;\n        address manufacturer;\n        uint[] certificateIds;\n    }\n    struct Certificate {\n        uint id;\n        Entity issuer;\n        Entity prover;\n        bytes signature;\n    }\n    uint public constant MAX_CERTIFICATIONS = 2;\n    uint[] public vaccineBatchIds;\n    uint[] public certificateIds;\n\n    mapping(uint => VaccineBatch) public vaccineBatches;\n    mapping(uint => Certificate) public certificates;\n    mapping(address => Entity) public entities;\n\n    event AddEntity(address entityId, string entityMode);\n    event AddVaccineBatch(uint vaccineBatchId, address manufacturer);\n    event IssueCertificate(address issuer, address prover, uint certificateId);\n\n    function addEntity(address _id, string memory _mode) public {\n        Mode mode = unmarshalMode(_mode);\n        uint[] memory _certificateIds = new uint[](MAX_CERTIFICATIONS);\n        Entity memory entity = Entity(_id, mode, _certificateIds);\n        entities[_id] = entity;\n        emit AddEntity(entity.id, _mode);\n    }\n\n    function addVaccineBatch(string memory brand, address manufacturer)\n        public\n        returns (uint)\n    {\n        uint[] memory _certificateIds = new uint[](MAX_CERTIFICATIONS);\n        uint id = vaccineBatchIds.length;\n        VaccineBatch memory batch = VaccineBatch(\n            id,\n            brand,\n            manufacturer,\n            _certificateIds\n        );\n        vaccineBatches[id] = batch;\n        vaccineBatchIds.push(id);\n        emit AddVaccineBatch(batch.id, batch.manufacturer);\n        return id;\n    }\n\n    function issueCertificate(\n        address _issuer,\n        address _prover,\n        bytes memory signature\n    ) public returns (uint) {\n        Entity memory issuer = entities[_issuer];\n        require(issuer.mode == Mode.ISSUER);\n\n        Entity memory prover = entities[_prover];\n        require(prover.mode == Mode.PROVER);\n\n        uint id = certificateIds.length;\n        Certificate memory certificate = Certificate(\n            id,\n            issuer,\n            prover,\n            signature\n        );\n        certificateIds.push(certificateIds.length);\n        certificates[certificateIds.length - 1] = certificate;\n        emit IssueCertificate(_issuer, _prover, certificateIds.length - 1);\n        return certificateIds.length - 1;\n    }\n\n    function unmarshalMode(string memory _mode)\n        private\n        pure\n        returns (Mode mode)\n    {\n        bytes32 encodedMode = keccak256(abi.encodePacked(_mode));\n        bytes32 encodedMode0 = keccak256(abi.encodePacked(\"ISSUER\"));\n        bytes32 encodedMode1 = keccak256(abi.encodePacked(\"PROVER\"));\n        bytes32 encodedMode2 = keccak256(abi.encodePacked(\"VERIFIER\"));\n\n        if (encodedMode == encodedMode0) {\n            return Mode.ISSUER;\n        }\n\n        if (encodedMode == encodedMode1) {\n            return Mode.PROVER;\n        }\n\n        if (encodedMode == encodedMode2) {\n            return Mode.VERIFIER;\n        }\n\n        revert(\"received invalid entity mode\");\n    }\n\n    function isMatchingSignature(uint id, address issuer)\n        public\n        view\n        returns (bool)\n    {\n        Certificate memory certificate = certificates[id];\n        require(certificate.issuer.id == issuer);\n        return true;\n    }\n}\n",
  "sourcePath": "C:\\Users\\user\\Desktop\\javascript-calismalari\\supply-chain\\contracts\\ColdChain.sol",
  "compiler": {
    "name": "solc",
    "version": "0.8.15+commit.e14f2714.Emscripten.clang"
  },
  "schemaVersion": "3.4.4",
  "updatedAt": "2022-07-03T21:59:49.763Z",
  "devdoc": {
    "kind": "dev",
    "methods": {},
    "version": 1
  },
  "userdoc": {
    "kind": "user",
    "methods": {},
    "version": 1
  }
}