{
  "contractName": "Send",
  "abi": [
    {
      "inputs": [
        {
          "internalType": "address payable",
          "name": "wallet",
          "type": "address"
        }
      ],
      "name": "sendEth",
      "outputs": [
        {
          "internalType": "bool",
          "name": "",
          "type": "bool"
        }
      ],
      "stateMutability": "payable",
      "type": "function",
      "payable": true
    }
  ],
  "bytecode": "0x608060405234801561001057600080fd5b506101a1806100206000396000f3fe60806040526004361061001e5760003560e01c806376a54c6014610023575b600080fd5b61003d60048036038101906100389190610108565b610053565b60405161004a9190610150565b60405180910390f35b60008173ffffffffffffffffffffffffffffffffffffffff166108fc349081150290604051600060405180830381858888f1935050505015801561009b573d6000803e3d6000fd5b5060019050919050565b600080fd5b600073ffffffffffffffffffffffffffffffffffffffff82169050919050565b60006100d5826100aa565b9050919050565b6100e5816100ca565b81146100f057600080fd5b50565b600081359050610102816100dc565b92915050565b60006020828403121561011e5761011d6100a5565b5b600061012c848285016100f3565b91505092915050565b60008115159050919050565b61014a81610135565b82525050565b60006020820190506101656000830184610141565b9291505056fea2646970667358221220535df7d9220985bf73cad548b308b5261d50d68804019e387af0090087e8ffd064736f6c634300080f0033",
  "immutableReferences": {},
  "source": "// SPDX-License-Identifier: UNLICENSED\npragma solidity >=0.7.0 <0.9.0;\n\ncontract Send {\n    function sendEth(address payable wallet) public payable returns (bool) {\n        wallet.transfer(msg.value);\n        return true;\n    }\n}\n",
  "sourcePath": "C:\\Users\\user\\Desktop\\javascript-calismalari\\supply-chain\\contracts\\Send.sol",
  "compiler": {
    "name": "solc",
    "version": "0.8.15+commit.e14f2714.Emscripten.clang"
  },
  "schemaVersion": "3.4.4",
  "updatedAt": "2022-07-05T23:13:12.074Z",
  "networkType": "ethereum",
  "devdoc": {
    "kind": "dev",
    "methods": {},
    "version": 1
  },
  "userdoc": {
    "kind": "user",
    "methods": {},
    "version": 1
  }
}